{
  "contractName": "Transactions",
  "abi": [
    {
      "inputs": [],
      "name": "deposit",
      "outputs": [],
      "stateMutability": "payable",
      "type": "function",
      "payable": true
    },
    {
      "inputs": [
        {
          "internalType": "address payable",
          "name": "_to",
          "type": "address"
        },
        {
          "internalType": "uint256",
          "name": "_amount",
          "type": "uint256"
        }
      ],
      "name": "withdraw",
      "outputs": [],
      "stateMutability": "nonpayable",
      "type": "function"
    },
    {
      "inputs": [],
      "name": "getBalance",
      "outputs": [
        {
          "internalType": "uint256",
          "name": "",
          "type": "uint256"
        }
      ],
      "stateMutability": "view",
      "type": "function",
      "constant": true
    },
    {
      "inputs": [],
      "name": "getAddress",
      "outputs": [
        {
          "internalType": "address",
          "name": "",
          "type": "address"
        }
      ],
      "stateMutability": "view",
      "type": "function",
      "constant": true
    }
  ],
  "bytecode": "0x608060405234801561001057600080fd5b5061029f806100206000396000f3fe60806040526004361061003f5760003560e01c806312065fe01461004457806338cc48311461006f578063d0e30db01461009a578063f3fef3a3146100a4575b600080fd5b34801561005057600080fd5b506100596100cd565b6040516100669190610143565b60405180910390f35b34801561007b57600080fd5b506100846100d5565b604051610091919061019f565b60405180910390f35b6100a26100dd565b005b3480156100b057600080fd5b506100cb60048036038101906100c69190610229565b6100df565b005b600047905090565b600030905090565b565b8173ffffffffffffffffffffffffffffffffffffffff166108fc829081150290604051600060405180830381858888f19350505050158015610125573d6000803e3d6000fd5b505050565b6000819050919050565b61013d8161012a565b82525050565b60006020820190506101586000830184610134565b92915050565b600073ffffffffffffffffffffffffffffffffffffffff82169050919050565b60006101898261015e565b9050919050565b6101998161017e565b82525050565b60006020820190506101b46000830184610190565b92915050565b600080fd5b60006101ca8261015e565b9050919050565b6101da816101bf565b81146101e557600080fd5b50565b6000813590506101f7816101d1565b92915050565b6102068161012a565b811461021157600080fd5b50565b600081359050610223816101fd565b92915050565b600080604083850312156102405761023f6101ba565b5b600061024e858286016101e8565b925050602061025f85828601610214565b915050925092905056fea2646970667358221220f96113b472d03da17ce51714eb93c977c9d35be9e3f7f8171a7ea35cb6f7463064736f6c63430008090033",
  "immutableReferences": {},
  "source": "//SPDX-License-Identifier: GPL-3.0\r\n\r\npragma solidity >=0.8.7;\r\n\r\ncontract Transactions {\r\n    //Address --> Contract -- deposit\r\n    function deposit() external payable {}\r\n\r\n    //Contract --> Address  -- withdrawal\r\n    function withdraw(address payable _to, uint _amount) external {\r\n        _to.transfer(_amount);\r\n    }\r\n\r\n    function getBalance() external view returns (uint) {\r\n        return address(this).balance;\r\n    }\r\n\r\n    function getAddress() external view returns (address) {\r\n        return address(this);\r\n    }\r\n}\r\n",
  "sourcePath": "D:\\projects\\nci\\blockchainproject\\anishyadav_retail\\handtime-html\\contracts\\Transaction.sol",
  "compiler": {
    "name": "solc",
    "version": "0.8.9+commit.e5eed63a.Emscripten.clang"
  },
  "schemaVersion": "3.4.16",
  "updatedAt": "2024-04-03T21:55:22.783Z",
  "networkType": "ethereum",
  "devdoc": {
    "kind": "dev",
    "methods": {},
    "version": 1
  },
  "userdoc": {
    "kind": "user",
    "methods": {},
    "version": 1
  }
}